:020000040000FA
:02000000672A6D
:080008008B13F41001303402E7
:1000100003193828023034020319532803303402FC
:1000200003197728043034020319A028053034025C
:100030000319CE280630340203190129073034028F
:1000400003192B29083034020319462909303402D8
:1000500003196A291030340203199329113034022C
:100060000319C129602A013037020319F429602AD3
:10007000C0308D24F4148B1C4628AD01A30A073030
:100080002302031944284F28A3014F28AD0A283022
:100090002D0203194C28602AAD01B40A4F283030D4
:1000A00023078D24602AC1308D24F4148B1C6A2808
:1000B000AD01A40A06302302031963280A30240282
:1000C0000319682873280630240203196828732846
:1000D000A4017328AD0A28302D0203197028602A64
:1000E000AD01B40A7328303024078D24602AC23051
:1000F0008D24F4148B1C9328AD01A50A063023022D
:10010000031987280A302502031991289C280530F5
:10011000240203198C28822806302502031991280D
:100120009C28A5019C28AD0A28302D020319992886
:10013000602AAD01B40A9C28303025078D24602A3E
:10014000C3308D24F4148B1CC128AD01A60A0630DF
:1001500023020319B0280A3026020319BF28CA282F
:10016000053024020319B528AB28053025020319F0
:10017000BA28AB28043026020319BF28CA28A601D2
:10018000CA28AD0A28302D020319C728602AAD01FC
:10019000B40ACA28303026078D24602AC4308D2442
:1001A000F4148B1CF428AD01A70A063023020319AE
:1001B000DE280A3027020319F228FD280530240220
:1001C0000319E328D928053025020319E828D9287E
:1001D000033026020319ED28D92806302702031917
:1001E000F228FD28A701FD28AD0A28302D020319A9
:1001F000FA28602AAD01B40AFD28303027078D2483
:10020000602AC5308D24F4148B1C2229AD01B50A57
:1002100003303502031D0D29B501003035020319E5
:1002200019290130350203191C290230350203193E
:100230001F292B308D24602A2F308D24602A2530F1
:100240008D24602AAD0A28302D0203192829602A3E
:10025000AD01B40A0D29C6308D24F4148B1C392944
:10026000AD01A80A07302802031937294229A8013D
:100270004229AD0A28302D0203193F29602AAD0119
:10028000B40A4229303028078D24602AC7308D24D3
:10029000F4148B1C5D29AD01A90A0630280203194C
:1002A00056290A30290203195B29662906302902DA
:1002B00003195B296629A9016629AD0A28302D0298
:1002C00003196329602AAD01B40A66293030290771
:1002D0008D24602AC8308D24F4148B1C8629AD012E
:1002E000AA0A0630280203197A290A302A020319B9
:1002F00084298F290530290203197F2975290630A1
:100300002A02031984298F29AA018F29AD0A2830CE
:100310002D0203198C29602AAD01B40A8F293030CF
:100320002A078D24602AC9308D24F4148B1CB4292B
:10033000AD01AA0A063028020319A3290A302B02AC
:100340000319B229BD29053029020319A8299E29BC
:1003500005302A020319AD299E2904302B02031906
:10036000B229BD29AB01BD29AD0A28302D020319E0
:10037000BA29602AAD01B40ABD2930302B078D247B
:10038000602ACA308D24F4148B1CE729AD01AC0A15
:10039000063028020319D1290A302C020319E52955
:1003A000F029053029020319D629CC2905302A0263
:1003B0000319DB29CC2903302B020319E029CC29AE
:1003C00006302C020319E529F029AC01F029AD0A09
:1003D00028302D020319ED29602AAD01B40AF02955
:1003E00030302C078D24602AF4148B1CFE29F82948
:1003F000AD01B60A033036020319042AAD0A2830CB
:100400002D020319062A602AB6010800AD0100304A
:1004100036020319132A013036020319132A023057
:1004200036020319672AC0308D24303023078D240B
:10043000303024078D24303025078D2430302607B6
:100440008D24303027078D24C6308D243030280786
:100450008D24303029078D2430302A078D24303008
:100460002B078D2430302C078D24C5308D24F414B7
:100470008B1C562AAD01B50A03303502031D412AF3
:10048000B5010030350203194D2A01303502031938
:10049000502A023035020319532A2B308D24602A4A
:1004A0002F308D24602A25308D24602AAD0A283013
:1004B0002D0203195C2A602AAD010908B400412A03
:1004C0003D3081008B100B118B17080009000030A4
:1004D000A300A400A500A600A700A800A900AA00E8
:1004E000AB00AC00AE00AF00B000B100B200B30092
:1004F000AD00B501B6010130B400831603138801C5
:100500008316031383160313061487108312031331
:100510008801B0018312031387018312031386013C
:100520009D24B701F62283160313C730810083167A
:100530000313FF308600831203138B170B168B10E7
:100540008B160B113D30810009303402031DC82A7F
:100550008B12F410C0308D24F4143D308D241923F7
:10056000003035020319BC2AB52A013035020319BF
:10057000BB2ABA2AB32BB32B7E235F236E24B5018B
:10058000B401C92A41245F236E24B501B401C92AEC
:10059000A42A0030AD00B501B6018316031388010B
:1005A0008316031383160313061487108312031391
:1005B0008801B0018312031387018312031386019C
:1005C0000108B7009D243C2B83160313C73081001C
:1005D00083160313FF308600831203138B170B1649
:1005E0008B108B160B113D308100A42AF410803043
:1005F0008D24F41445308D244E308D2454308D24B8
:1006000045308D2452308D2420308D244F308D2460
:1006100050308D2445308D2452308D2441308D242E
:1006200054308D2449308D244F308D244E308D240C
:100630000800F41080308D24F41452308D2445309D
:100640008D2453308D2455308D244C308D245430DE
:100650008D2420308D2420308D2420308D24203096
:100660008D2420308D2420308D2420308D24203086
:100670008D2420308D240800F41080308D24F41453
:100680004B308D2445308D2445308D2450308D24C1
:100690003F308D2420308D2431308D243A308D240C
:1006A00059308D2420308D2432308D243A308D24E1
:1006B0004E308D2420308D2420308D240800F410FD
:1006C000C1308D24F41430302E078D2430302F07A4
:1006D0008D24303030078D24303031078D24303078
:1006E00032078D24303033078D2420308D24203084
:1006F0008D2420308D2420308D2408002708AC075D
:10070000B300031C9E2B010826072B07B200031C15
:10071000A32B010825072A07B100031CA82B0108F9
:1007200024072907B000031CAD2B01082307280765
:10073000AF00031CB22B01082E07B22B26082B0793
:10074000B2000318892B25082A07B10003188F2B44
:1007500024082907B0000318952B23082807AF00A9
:1007600003189B2B080068308D24E62B1B2C1630B9
:10077000AD00C201C101C401C3013D083D083C04F4
:100780000319672AC42B0800BB0DBA0DC10DC20D99
:100790003B083D0203183A083C02031CC42B4108E5
:1007A000C7004208C8003B08C3003A08C400013033
:1007B00035020319DC2BE12B4230C8004130C70061
:1007C000C22A4430C8004330C700C22A2308BE00F2
:1007D00024243F08B807BF012408BE002B243F088B
:1007E000B807BF012508BE0032243F08B807BF0183
:1007F0002608BE0039243F08B807BF012708B807FC
:100800002808BE0024243F08B907BF012908BE00FC
:100810002B243F08B907BF012A08BE0032243F0835
:10082000B907BF012B08BE0039243F08B907BF0133
:100830002C08B90708003808BA003908BB00390885
:10084000BC003A08BD0008001030C0003E08BF07D9
:10085000C00B272C0800E830C0003E08BF07C00BC3
:100860002E2C08006430C0003E08BF07C00B352C9A
:1008700008000A30C0003E08BF07C00B3C2CBE0178
:1008800008004708800EC5004808800EC6004508CD
:10089000C6004608C70403141030C602AF0A031886
:1008A0004D2CC607AF030314E830C602B00A031884
:1008B000552CC607B00303146430C602B10A0318EE
:1008C0005D2CC607B10303140A30C602B20A03182E
:1008D000652CC607B2034608B30008000C30A2001E
:1008E000C830A100FA30A00000000000A00B742C5A
:1008F000A10B722CA20B702C0800F930F000000044
:10090000F00B7F2C0800F1007D24F10B842C0800F3
:1009100008157D2408117D240800F500F0398800B1
:10092000F418881488247D24F50E7508F0398800A1
:10093000F418881488247D24080064308324F0305F
:10094000F4003030880088240530832488247D24F6
:1009500088240812882428308D2408308D24013002
:100960008D2406308D2480308D240C308D24080099
:02400E00313748
:00000001FF
